:100000000C940B080C9433080C9433080C943308AC
:100010000C9433080C9433080C9433080C94330874
:100020000C9433080C9433080C9433080C94330864
:100030000C9433080C9433080C9433080C94330854
:100040000C9473190C9433080C9466180C94401893
:100050000C9433080C9433080C9433080C94330834
:100060000C94BA120C94330800000000003E5B4F61
:100070005B3E3E6B4F6B3E1C3E7C3E1C183C7E3C08
:10008000181C577D571C1C5E7F5E1C00183C180016
:10009000FFE7C3E7FF0018241800FFE7DBE7FF30A6
:1000A000483A060E2629792926407F050507407F14
:1000B00005253F5A3CE73C5A7F3E1C1C08081C1C87
:1000C0003E7F14227F22145F5F005F5F06097F017D
:1000D0007F006689956A606060606094A2FFA29468
:1000E00008047E040810207E201008082A1C080836
:1000F0001C2A08081E101010100C1E0C1E0C303884
:100100003E3830060E3E0E06000000000000005F84
:1001100000000007000700147F147F14242A7F2AA0
:100120001223130864623649562050000807030062
:10013000001C2241000041221C002A1C7F1C2A08AE
:10014000083E080800807030000808080808000011
:1001500060600020100804023E5149453E00427F85
:10016000400072494949462141494D331814127FD4
:100170001027454545393C4A494931412111090774
:100180003649494936464949291E000014000000F5
:1001900040340000000814224114141414140041C7
:1001A00022140802015909063E415D594E7C121184
:1001B000127C7F494949363E414141227F414141BC
:1001C0003E7F494949417F090909013E4141517337
:1001D0007F0808087F00417F41002040413F017FA8
:1001E000081422417F404040407F021C027F7F0470
:1001F00008107F3E4141413E7F090909063E4151B9
:10020000215E7F09192946264949493203017F01A8
:10021000033F4040403F1F2040201F3F4038403FA9
:10022000631408146303047804036159494D4300BF
:100230007F4141410204081020004141417F0402F6
:10024000010204404040404000030708002054548D
:1002500078407F284444383844444428384444286B
:100260007F385454541800087E090218A4A49C78BE
:100270007F0804047800447D40002040403D007F1A
:100280001028440000417F40007C047804787C08FA
:100290000404783844444438FC18242418182424CE
:1002A00018FC7C08040408485454542404043F44B3
:1002B000243C4040207C1C2040201C3C4030403CE2
:1002C00044281028444C9090907C4464544C440042
:1002D00008364100000077000000413608000201A6
:1002E0000204023C2623263C1EA1A161123A404092
:1002F000207A38545455592155557941225454780F
:1003000042215554784020545579400C1E527212A7
:100310003955555559395454545939555454580030
:1003200000457C410002457D420001457C407D1234
:1003300011127DF0282528F07C5455450020545496
:100340007C547C0A097F4932494949323A44444441
:100350003A324A4848303A4141217A3A424020787C
:10036000009DA0A07D3D4242423D3D4040403D3C7D
:1003700024FF2424487E4943662B2FFC2F2BFF09A2
:1003800029F620C0887E0903205454794100004496
:100390007D413048484A32384040227A007A0A0A81
:1003A000727D0D19317D2629292F282629292926F4
:1003B00030484D4020380808080808080808382F39
:1003C00010C8ACBA2F102834FA00007B00000814C3
:1003D0002A142222142A14085500550055AA55AA99
:1003E00055AAFF55FF55FF000000FF00101010FF39
:1003F00000141414FF001010FF00FF1010F010F094
:10040000141414FC001414F700FF0000FF00FF1484
:1004100014F404FC141417101F10101F101F1414D0
:10042000141F00101010F0000000001F101010101A
:100430001F10101010F010000000FF10101010100E
:1004400010101010FF10000000FF140000FF00FF4C
:1004500000001F10170000FC04F4141417101714E8
:1004600014F404F40000FF00F7141414141414140A
:10047000F700F7141414171410101F101F1414147D
:10048000F4141010F010F000001F101F0000001FE7
:1004900014000000FC140000F010F01010FF10FF1A
:1004A000141414FF141010101F00000000F010FFAF
:1004B000FFFFFFFFF0F0F0F0F0FFFFFF0000000093
:1004C00000FFFF0F0F0F0F0F3844443844FC4A4A17
:1004D0004A347E02020606027E027E0263554941CC
:1004E000633844443C04407E201E2006027E020203
:1004F00099A5E7A5991C2A492A1C4C7201724C3017
:100500004A4D4D303048784830BC625A463D3E49ED
:100510004949007E0101017E2A2A2A2A2A44445F91
:10052000444440514A444040444A51400000FF0185
:1005300003E080FF000008086B6B08361236243693
:10054000060F090F060000181800000010100030F8
:1005500040FF0101001F01011E00191D1712003C80
:100560003C3C3C00000000000000000006000100D0
:100570000002120803EF050006060801F00A000D4C
:10058000100D00F124000B140D01EF4000141115A3
:1005900001F06B000E111001F0890002060501F058
:1005A0008B0005170802EF9A0005170801EFA90054
:1005B00007070901EFB0000A0B0E02F6BE000206A3
:1005C0000702FFC00006020801F9C200020206028B
:1005D000FFC30007120700EFD3000B110D01F0EB72
:1005E0000005110D03F0F6000B110D01F00E010BCB
:1005F000110D01F026010B110D01F03E010B110D43
:1006000001F056010B110D01F06E010B110D01F0FF
:1006100086010B110D01F09E010B110D01F0B601C9
:10062000020D0602F4BA0102100602F5BE010C0C1E
:100630000E01F5D0010C060E01F8D9010C0C0E01CB
:10064000F5EB010A120D02EF020216151801EF3C3C
:100650000210121000EF60020D121002EF7E020F66
:10066000121101EFA0020E121102EFC0020C120FC4
:1006700002EFDB020B120E02EFF40210121201EF76
:1006800018030D121102EF360302120702EF3B03AB
:1006900009120D01EF50030E121002EF70030A123F
:1006A0000E02EF870310121402EFAB030D121202B9
:1006B000EFC90311121301EFF0030C121002EF0B3C
:1006C0000411131301EF34040E121102EF54040E3F
:1006D000121001EF74040C120F01EF8F040D1211B0
:1006E00002EFAD040F120F00EFCF0416121600EF49
:1006F00001050F121000EF230510121000EF47053F
:100700000D120F01EF650504170702EF71050712BF
:100710000700EF810504170701EF8D0509090B019B
:10072000F098050F010DFF049A0505040601EF9DE1
:10073000050C0D0D01F4B1050C120D01EFCC050AED
:100740000D0C01F4DD050B120D01EFF6050B0D0D7F
:1007500001F4080605120701EF14060B120D01F44F
:100760002D060A120D01EF440602120502EF49069A
:1007700004170600EF55060B120C01EF6E0602126D
:100780000501EF7306110D1301F48F060A0D0D011B
:10079000F4A0060B0D0D01F4B2060C110D01F4CC02
:1007A000060B110D01F4E406060D0801F4EE060A2D
:1007B0000D0C01F4FF0605100701F109070A0D0DE4
:1007C00001F41A070C0D0C00F42E07110D1100F4A2
:1007D0004A070B0D0B00F45C070B120B00F47507B6
:1007E0000A0D0C01F4860705170801EF950702179B
:1007F0000602EF9B0705170802EFAA070A050C017E
:10080000F6FFFFFFF0F0CF3CF38A200630310318EB
:1008100018C7FFBFFC31031818C7FFBFFC31011810
:1008200018C0C606300403E1FF726C4788F1072048
:100830007E03F017023C4788F11B267FC3E01002BD
:1008400000000603C0407E0C0E7080C3180C3100FF
:10085000E73007E6003C40000C7C008FE019C70140
:1008600018303183021C7040FE0407C00F007E0365
:100870009C0C3030C0E701F803803E01CC6E19B00B
:100880007CC0F303CE1F9FE61E1CFFA0088C6631C0
:1008900098C6318C63086308610C208218C318C3A2
:1008A00018C6318C623188C4620010235BE38D91DD
:1008B000000C0300C030FFFFF0C0300C0300C0F597
:1008C00060FFF0F0020C1020C1020C1020C1020CDD
:1008D0001020C1001F07F1C7306E0F80F01E03C04B
:1008E000780F01E03C0EC19C71FC1F0008CFFF8C0B
:1008F0006318C6318C63181F0FF987607C0600C02F
:10090000180701C0F0781C0600803007FFFFE03FA9
:100910000FF387606C0C0180707C0F801801803CA5
:100920000780D873FC1F000180700E03C0D81B061F
:10093000618C218C33067FFFFE0300600C01803F39
:10094000CFF980300600DE1FE70E00E00C0180309A
:100950000781F873FC1F000F07F9C330740180335F
:10096000C7FEF0DC1F01E03C06C1DC71FC1F00FF8C
:10097000FFFC010060180200C03006018030040155
:10098000803006018030001F07F1C730660CC18C33
:1009900061FC3F8E3B01E03C0780D831FC1F001F0B
:1009A00007F1C7706C0780F01E0761EFFC7980309B
:1009B00005819873FC1E00F00003C0F0000F560084
:1009C000000701E0F83C0F00E007C00F003C00F01A
:1009D00001FFFFFF000000FFFFFF000E007801F0A5
:1009E00007C00F00701E0F03C0F008001F1FEE1B92
:1009F00003C0C0300C060381C0E0300C03000000CF
:100A00000C030000FE000FFE00F03E07003C380023
:100A100030C1E0660FD9D861C3C3070F1C1C3C600E
:100A200060F18183C6061B1838EE71E718FDF87176
:100A3000E7C0E00001E00001FFC001FC0003C003CB
:100A4000C003C007E0066006600E700C300C301C5E
:100A50003818181FF83FFC301C300C700E60066010
:100A600006FFC7FF3019806C03601B00D80CFFC75E
:100A7000FF300D803C01E00F007806FFF7FE000715
:100A8000E03FF0E0738066006C0030006000C00161
:100A9000800300060006006C00DC031E0E1FF80F2A
:100AA000C0FF83FF8C07300EC01B007C00F003C02A
:100AB0000F003C00F003C01F006C03B01CFFE3FFFD
:100AC00000FFFFFFC00C00C00C00C00C00FFEFFED9
:100AD000C00C00C00C00C00C00FFFFFFFFFFFF00B8
:100AE000600C0180300600FFDFFB00600C018030ED
:100AF0000600C0180007F01FFC3C1E70066003E0F3
:100B000000C000C000C07FC07FC003C0036003609E
:100B100007300F3C1F1FFB07E1C01E00F007803CA1
:100B200001E00F007803FFFFFFF007803C01E00FBA
:100B3000007803C01E00C0FFFFFFFFF00180C0600F
:100B400030180C06030180C0603C1E0F07C77F1FD2
:100B500000C03B01CC0E3070C3831C0CE03380DE40
:100B600003DC0E383060C1C3038C06301CC03B0070
:100B700060C0300C0300C0300C0300C0300C030018
:100B8000C0300C0300FFFFF0E007E007F00FF00FAC
:100B9000D00FD81BD81BD81BCC33CC33CC33C66377
:100BA000C663C663C3C3C3C3C3C3C183E01F00FC22
:100BB00007E03D81EE0F3079C3C61E18F0E7833C95
:100BC0001DE06F01F80FC03E01C003E00FFC0F07EE
:100BD0008600C60033001B00078003C001E000F060
:100BE0000078003600330018C018783C1FFC03F86A
:100BF00000FF8FFEC06C03C03C03C03C07FFEFFC4E
:100C0000C00C00C00C00C00C00C00C0003E00FFCC6
:100C10000F078600C60033001B00078003C001E0F9
:100C200000F00078003600330198C0FC783C1FFFCC
:100C300003F9800040FFC3FFCC03B006C01B006C6B
:100C400001B00CFFE3FFCC03B006C01B006C01B089
:100C500006C01B00700FE07FC3839C07600D8006F9
:100C6000001E003F803FC00F8007C00F003E00DE27
:100C70000E3FF03F80FFFFFF0600600600600600A9
:100C80006006006006006006006006006006006006
:100C9000C01E00F007803C01E00F007803C01E007A
:100CA000F007803C01E00F80EE0E3FE07C00600624
:100CB000C01DC031806301C70306060C1C1C301820
:100CC0006031C073006600DC01F001E003C0070082
:100CD000E0301D80E0760781D81E06707C18C1B018
:100CE000E30CC38C330C38C6306718C198670661B3
:100CF000D81D83603C0D80F03E03C0700F01C0180A
:100D00000700700E6038E060E1C0C301CC01F8015B
:100D1000E0038007801F003300E70386060E1C0EE9
:100D2000700CC01C6006700E301C38181C380C305B
:100D30000E70066003C003C0018001800180018045
:100D40000180018001800180FFFFFFC00E00E00EE6
:100D5000006007007007003003803803801801C06E
:100D60001C00FFFFFFC0FFCCCCCCCCCCCCCCCCCC7F
:100D7000CFF08181020604081810206040818102B2
:100D80000604FF3333333333333333333FF00C0E46
:100D90000586C321198C83C180FFFEE38C303F0799
:100DA000F8E1CC0C00C01C3FCF8CC0CC0CE3C7EFEB
:100DB0003C70C00C00C00C00C00CF8DFCF0EE07C13
:100DC00003C03C03C03C03E06F0EDFCCF81F0FE70D
:100DD0001B83C0300C0300C038371CFE1F000060AE
:100DE0000C018030063CCFFB8FE0F80F01E03C07A0
:100DF00080F83B8F3F63CC1F07F1C7703C07FFFFB4
:100E0000FE00C01C0DC31FE1F03BD8C67FEC631889
:100E1000C6318C63001E67FDC7F07C0780F01E039F
:100E2000C07C1DC79FB1E600C03E0E7FC7E0C0304A
:100E30000C0300C033CDFBC7E0F03C0F03C0F03C17
:100E40000F03C0F030F03FFFFFF0330003333333C4
:100E5000333333333FE0C0180300600C018330C6E6
:100E600030CC1B83F0770C618E30E60CC1D818FFB4
:100E7000FFFFFFF0CF1F6FDFFC78FC183C0C1E0655
:100E80000F03078183C0C1E060F03078183C0C1874
:100E9000CF37EF1F83C0F03C0F03C0F03C0F03C0FF
:100EA000C01F07F1C7707C0780F01E03C07C1DC700
:100EB0001FC1F0CF8DFCF0EE06C03C03C03C03C068
:100EC0003E07F0EFFCCF8C00C00C00C0001E67FD99
:100ED000C7F07C0780F01E03C07C1DC79FF1E600B1
:100EE000C018030060CF7F38C30C30C30C30C03E45
:100EF0001FEE1B00C03C07F03E01F03E1DFE3E0011
:100F00006319FFB18C6318C631E7C0F03C0F03C012
:100F1000F03C0F03C0F07E3DFB3CC0E0660660671E
:100F20000C30C30C3981981981F00F00E00E00C11C
:100F3000C1B0E1D870CC2C6636319B18CD98646C6A
:100F400016360F1A078F038380C1C060EE18C60CD7
:100F5000C1F01C0180781B0330C7306606E06C0DC1
:100F60008338630C630E60CC1B03603C0700E01801
:100F70000300E0780E00FFFFF0180C070381C0604B
:100F800030180E03FFFFC019CC6318C631998618BC
:100F9000C6318C631C60FFFFFFFFFFFCC718C63122
:100FA0008C630C33318C6318C67300703E09E41FE8
:100FB000038000000000240027002A000000000039
:100FC000250028002B0001086805207E1D00000078
:100FD000002300260029000404040404040404027D
:100FE00002020202020303030303030102040810C6
:100FF0002040800102040810200102040810200093
:1010000000000800020100000304070000000000C7
:1010100000000000092211241FBECFEFD8E0DEBF80
:10102000CDBF15E0A0E0B1E0ECE5FFE402C0059023
:101030000D92AA38B107D9F727E0AAE8B5E001C0B8
:101040001D92A234B207E1F718E0CBE0D8E004C06B
:101050002197FE010E949A25CA30D107C9F70E9444
:10106000BC1B0C94AC270C9400006F927F928F9263
:101070009F92AF92BF92CF92DF92EF92FF920F9327
:101080001F93CF93DF93EC014B015A0169013801A3
:10109000E881F9810284F385E02D0995E881F981E1
:1010A0000288F389E02D87019601A501B401CE01E4
:1010B0000995E881F981A501460D571D4150510957
:1010C0000288F389E02D9601B401CE010995E881EB
:1010D000F9810088F189E02D9301A501B401CE01C9
:1010E0000995E881F981C80CD91CB60161507109D4
:1010F0000088F189E02D9301A501CE010995E881D1
:10110000F9810688F789E02DCE01DF91CF911F91FB
:101110000F91FF90EF90DF90CF90BF90AF909F9096
:101120008F907F906F900994CF92DF92EF92FF9211
:101130000F931F93CF93DF9300D000D000D0CDB793
:10114000DEB76C01DC01ED91FC916217730789F445
:10115000041715072CF4942F852FA801092F182F99
:10116000041B150B98012F5F3F4F048CF58DE02D6C
:1011700012C04017510709F5261737072CF4962F90
:10118000872FB901292F382F261B370B2F5F3F4F91
:10119000068CF78DE02D8701C601099526960FB6BE
:1011A000F894DEBF0FBECDBFDF91CF911F910F919D
:1011B000FF90EF90DF90CF9008950284F385E02DAB
:1011C0002D833E834B835C8369837A830995D601A3
:1011D000ED91FC910488F589E02D2D813E814B81B4
:1011E0005C8169817A81C6010995D601ED91FC91F6
:1011F0000688F789E02DC60126960FB6F894DEBF63
:101200000FBECDBFDF91CF911F910F91FF90EF9057
:10121000DF90CF900994EF92FF920F931F93DC0120
:10122000ED91FC9111971A960D911C911B971896B0
:101230002D913C91199700A0F1A1E02D7B0140E098
:1012400050E060E070E009951F910F91FF90EF90E2
:1012500008954F925F926F927F928F929F92AF927A
:10126000BF92CF92DF92EF92FF920F931F93CF9393
:10127000DF9300D0CDB7DEB76C015A0139014801C8
:10128000DC01ED91FC910284F385E02D69837A8382
:1012900009956981462E7A81572E640C751CD601FA
:1012A000ED91FC91461457046CF40088F189E02D0F
:1012B00087019401A501B201C6010995BFEF4B1A40
:1012C0005B0AEDCF0688F789E02DC6010F900F90DD
:1012D000DF91CF911F910F91FF90EF90DF90CF9012
:1012E000BF90AF909F908F907F906F905F904F9046
:1012F0000994AF92BF92CF92DF92EF92FF920F9339
:101300001F93CF93DF9300D000D0CDB7DEB75C0141
:101310006901DC01ED91FC910284F385E02D4B83A2
:101320005C8369837A830995D501ED91FC9169818C
:101330007A819B012C0D3D1D215031090488F589CE
:10134000E02D78014B815C818A01C5010995D501A9
:10135000ED91FC910688F789E02DC5010F900F9063
:101360000F900F90DF91CF911F910F91FF90EF9011
:10137000DF90CF90BF90AF900994AF92BF92CF9281
:10138000DF92EF92FF920F931F93CF93DF9300D0E2
:1013900000D0CDB7DEB75C016901DC01ED91FC91B5
:1013A0000284F385E02D4B835C8369837A830995FE
:1013B000D501ED91FC914B815C81C40ED51EB1E04D
:1013C000CB1AD1080488F589E02D7801860169815E
:1013D0007A819B01C5010995D501ED91FC910688A3
:1013E000F789E02DC5010F900F900F900F90DF91BE
:1013F000CF911F910F91FF90EF90DF90CF90BF9012
:10140000AF9009940895EF92FF920F931F93DC0120
:10141000ED91FC9100A0F1A1E02D09951F910F9194
:10142000FF90EF9008950F931F93DC01ED91FC91D5
:10143000068CF78DE02D09951F910F9108950F935C
:101440001F93DC01ED91FC91048CF58DE02D099545
:101450001F910F910895DC01ED91FC910084F185BD
:10146000E02D099408952F923F924F925F926F92D0
:101470007F928F929F92AF92BF92CF92DF92EF9224
:10148000FF920F931F93CF93DF9300D01F92CDB79E
:10149000DEB74C017B836A836A0159011701980109
:1014A000241B350B37FF03C0319521953109C50148
:1014B0004A815B81841B950B97FF03C091958195B1
:1014C000910951E059838217930714F019820BC0D8
:1014D0009A2D8B2D5801092F182F9A818B81DB8231
:1014E000CA82C92ED82E8A819B81A816B9065CF4BF
:1014F0009C2D8D2D6801092F182F9A818B81BB821D
:10150000AA82A92EB82E2501AA81BB814A1A5B0A9C
:1015100038016C187D0877FE03C0719461947108DE
:10152000720157FE03C0BFEFEB1AFB0AF594E79474
:10153000C016D1061CF00FEF1FEF1FC001E010E036
:101540001CC0D401ED91FC91B9810484F585E02D96
:101550009101BB23C1F04A815B81B601C4010995A9
:10156000E618F708F7FE04C0C00ED11EE40CF51C07
:10157000EA81FB813196FB83EA834A815B81A41671
:10158000B506FCF604C0A6016A817B81E7CF0F9007
:101590000F900F90DF91CF911F910F91FF90EF90DF
:1015A000DF90CF90BF90AF909F908F907F906F9083
:1015B0005F904F903F902F9008950F931F93CF937C
:1015C000DF93DC0155968C915597823071F0833012
:1015D00009F1813009F08CC01496ED91FC911597BA
:1015E000E41BF50BE21BF30B20C01496ED91FC916C
:1015F0001597CF01861B970BBC0161507109169698
:10160000ED91FC911797CF01841B950BAC01421B08
:10161000530B6EC01696ED91FC911797CF01861B68
:10162000970BBC0161507109FA0177FD1BC1169639
:101630008D919C911797681779070CF013C1F7FFEC
:1016400004C02E0F3F1FE0E0F0E014968D919C91B6
:101650001597AF01420F531F841795071CF49C0187
:101660002E1B3F0B121613060CF0FCC0CB0177FDAE
:10167000079643E0959587954A95E1F79695982FBB
:10168000882797958795E80FF91FEE5FFE4F6770E3
:10169000772781E090E001C0880F6A95EAF7482F2C
:1016A0000130110541F088F00230110509F0DAC06F
:1016B0002E0F3F1F15C02E0F3F1FE217F30709F42F
:1016C000D1C08081842B8193F8CF80952E0F3F1F4E
:1016D000E217F30709F4C6C0908198239193F8CFDD
:1016E000E217F30709F4BEC0808184278193F8CF05
:1016F00077FDB8C014968D919C911597681779075E
:101700000CF0B0C057FF04C0240F351F40E050E07C
:1017100016968D919C911797FA01E20FF31F8E1781
:101720009F071CF49C01241B350B121613060CF0AA
:1017300099C0A22F842F86958695869590E8899FDB
:10174000600D711D1124FB01EE5FFE4F4770A9F182
:1017500098E0941B492F50E0EA01C05FDA4F88817E
:10176000291790F4421B51092FEF30E002C0359544
:1017700027954A95E2F782230130110541F068F080
:101780000230110589F06EC00130110519F4208175
:10179000822B0CC00130110520F48095208182231A
:1017A00005C00230110531F4208182278083A917FA
:1017B00008F458C0A91BE058FF4FA83048F1023088
:1017C000110559F4EF018A2F988190959883C0589C
:1017D000DF4F88508830C0F730C081E001301105FC
:1017E00009F080E08195EF019A2F8883C058DF4F80
:1017F00098509830D0F788EF8A0F86958695869511
:1018000090E8899FE00DF11D1124E058FF4FA7706B
:10181000AA2341F1B0E0A85FBA4F8C9101301105C5
:1018200029F038F002301105D1F01CC09081892BCD
:1018300018C080959081892314C088EF8A0F8695FF
:101840008695869590E8899FE00DF11D1124E0585A
:10185000FF4FA77039F0B0E0A85FBA4F8C9190812C
:1018600089278083DF91CF911F910F9108950F9366
:101870001F93CF93DF93DC01FB0155968C91559715
:10188000823081F0833019F1813051F514968D91B9
:101890009C911597BC01641B750BAB01415051091C
:1018A000BF0181C014966D917C911597CB018E1B61
:1018B0009F0BFC0116968D919C911797BC01641BA0
:1018C000750BAB0141505109E21BF30B09C0169691
:1018D0006D917C9117976E1B7F0B621B730B63C01E
:1018E00057FD1CC116968D919C9117974817590763
:1018F0000CF014C1F7FF04C02E0F3F1FE0E0F0E032
:1019000014968D919C911597BF01620F731F8617D6
:1019100097071CF49C012E1B3F0B121613060CF0AC
:10192000FDC0CA0157FD079663E0959587956A95B6
:10193000E1F79695982F882797958795E80FF91FD7
:10194000EE5FFE4F4770552781E090E001C0880FA1
:101950004A95EAF7482F0130110541F088F002302E
:10196000110509F0DBC02E0F3F1F15C02E0F3F1FC2
:10197000E217F30709F4D2C08081842B8193F8CF5A
:1019800080952E0F3F1FE217F30709F4C7C090811F
:1019900098239193F8CFE217F30709F4BFC0808131
:1019A00084278193F8CF57FDB9C014968D919C91EF
:1019B0001597481759070CF0B1C077FF04C0260FE0
:1019C000371F60E070E016968D919C911797FB0190
:1019D000E20FF31F8E179F071CF49C01261B370B89
:1019E000121613060CF09AC0A22F862F86958695A4
:1019F000869590E8899F400D511D1124FA01EE5FF4
:101A0000FE4F6770A9F198E0961B492F50E0EA015C
:101A1000C05FDA4F8881291790F4421B51092FEFDC
:101A200030E002C0359527954A95E2F782230130D0
:101A3000110541F068F00230110589F06FC00130E6
:101A4000110519F42081822B0CC00130110520F4FE
:101A500080952081822305C00230110531F4208158
:101A600082278083A91708F459C0A91BE058FF4FAB
:101A7000A83048F10230110559F4EF018A2F9881FE
:101A800090959883C058DF4F88508830C0F731C098
:101A900081E00130110509F080E08195EF019A2F76
:101AA0008883C058DF4F98509830D0F788EF8A0F5E
:101AB00086958695869560E8869FE00DF11D112438
:101AC000E058FF4FA770AA2349F1B0E0A85FBA4FD2
:101AD0008C910130110529F038F002301105D9F050
:101AE0001DC09081892B03C08095908189238083BC
:101AF00015C088EF8A0F86958695869570E8879F32
:101B0000E00DF11D1124E058FF4FA77039F0B0E04F
:101B1000A85FBA4F8C9190818927E9CFDF91CF914F
:101B20001F910F910895FC0177FD9AC080859185E2
:101B3000681779070CF094C057FD92C08285938591
:101B4000481759070CF08CC08589823009F07CC099
:101B500084819581DC01A61BB70BBD016150710921
:101B600086819781FC01E41BF50BAF0141505109BF
:101B70000AC0813041F484819581841B950BAB01AF
:101B8000BC01615071092130310529F008F1223082
:101B90003105E1F10895FA0157FD3796A3E0F59577
:101BA000E795AA95E1F7F695FE2FEE27F795E795CD
:101BB0006E0F7F1FFB01EE5FFE4F4770552781E0E0
:101BC00090E001C0880F4A95EAF79081892B3AC0CE
:101BD000FA0157FD379623E0F595E7952A95E1F749
:101BE000F695FE2FEE27F795E7956E0F7F1FFB0109
:101BF000EE5FFE4F4770552781E090E001C0880FEF
:101C00004A95EAF78095908189231CC0FA0157FD17
:101C1000379683E0F595E7958A95E1F7F695FE2FDF
:101C2000EE27F795E7956E0F7F1FFB01EE5FFE4FE6
:101C30004770552781E090E001C0880F4A95EAF788
:101C40009081892780830895833009F092CF86811F
:101C50009781861B970BBA01AC014150510993CF74
:101C6000089585ED8093BC008091BC0084FDFCCF7D
:101C70001092410608954091AC05262F30E0240FC4
:101C8000311D21323105DCF4209141062430C9F4A4
:101C9000FC0180E090E0861758F43091AC0521916A
:101CA000DC01A657BA4FA30FB11D2C930196F3CFB9
:101CB0008091AC05680F6093AC0580E0089581E0E9
:101CC000089582E008950895E091FA058091F9055C
:101CD000E81730F4F0E0E550FA4F808190E0089585
:101CE0008FEF9FEF08959091FA058091F90598176D
:101CF00050F4E92FF0E0E550FA4F208130E09F5F8B
:101D00009093FA0502C02FEF3FEFC901089580912B
:101D1000F90590E02091FA05821B91090895CF9270
:101D2000DF92EF92FF920F931F93CF93DF937C018B
:101D3000262F972F8A0180916406882391F0C62F61
:101D4000D72F6E01C40ED51ECC15DD0571F069913B
:101D5000D701ED91FC910190F081E02DC70109952B
:101D6000F3CF642F822F0E943B0EC801DF91CF91E9
:101D70001F910F91FF90EF90DF90CF900895CF9338
:101D8000DF931F92CDB7DEB76983209164062223CB
:101D9000D1F020916206203240F021E030E0FC01D9
:101DA0003383228380E090E015C080916306E82FA2
:101DB000F0E0EE5BF94F998190838F5F809363062B
:101DC0008093620605C061E0CE0101960E943B0E41
:101DD00081E090E00F90DF91CF910895089580E029
:101DE00090E00895AF92BF92CF92DF92EF92FF9270
:101DF0000F931F93CF93DF93CDB7DEB76E970FB6D8
:101E0000F894DEBF0FBECDBF7C015B01FC011182E7
:101E10001082138212821582148240E050E062E741
:101E200075E00E94B5171C8A1B8A1E8A1D8A188EAF
:101E30001F8A80E389831A828E010F5F1F4FF8018A
:101E400001900020E9F73197AF01401B510BB80119
:101E5000CE0143960E94B517CE0149966C011A8EA9
:101E6000198E1C8E1B8E1E8E1D8E9AE0A916B10433
:101E70000CF04CC06B897C896115710529F04F8984
:101E8000588DC6010E94B5174AE0B801C5010E94ED
:101E90006E22F80101900020E9F73197E01BF10B69
:101EA000AD8CBE8C3097B9F0AE0EBF1EB501C60129
:101EB0000E947C17882361F0298D3A8D8D8D9E8D2F
:101EC000B801820F931F0E94A527BE8EAD8E03C05E
:101ED000C6010E94A3171A8219821C821B821E82CD
:101EE0001D82698D7A8D6115710529F04D8D5E8D8C
:101EF000C8010E94B517E016F10621F0B801C7012C
:101F00000E944317C8010E94D61718C04AE0B801C2
:101F1000C5010E946E22F80101900020E9F7319777
:101F2000AF01401B510BB801C6010E94B517EC145C
:101F3000FD0421F0B601C7010E944317C6010E94AB
:101F4000D617CE0143960E94D617C7016E960FB6DC
:101F5000F894DEBF0FBECDBFDF91CF911F910F91DF
:101F6000FF90EF90DF90CF90BF90AF9008952F92A9
:101F70003F924F925F926F927F928F929F92AF9219
:101F8000BF92CF92DF92EF92FF920F931F93CF9366
:101F9000DF93CDB7DEB76C970FB6F894DEBF0FBEF8
:101FA000CDBF9C8F8B8F5B011A011F830E8337017E
:101FB000C982DC0158964D915C91599741155105A4
:101FC00009F0E5C018968D919C91199768177907CB
:101FD0000CF0CAC11A968D919C911B972816390650
:101FE0000CF0C2C18C2C912CFB0136E0C39EE00D9D
:101FF000F11D1124FB87EA871E161F060CF0B4C1E1
:10200000C40133E0880F991F3A95E1F79D878C87CB
:10201000820D931D181619060CF0A6C157968C91C7
:10202000811103C0203B08F02F5FAB8DBC8DED917B
:10203000FC9111970284F385E02DCD012A8F09953B
:102040002A8DB5E02B9F90011124F5013596FF876D
:10205000EE87BB82AA822501A9014A195B09598B27
:10206000488BC10108969B8B8A8BE889F989E40D1E
:10207000F51DE859FF4F9491988761013D822C82AC
:10208000A885A0FF13C0AB8DBC8DED91FC91B981EB
:10209000B13031F40484F585E02D2E813F8116C0E6
:1020A0000684F785E02DEE80FF801AC0EE81FF8167
:1020B0006E167F06F1F0AB8DBC8DED91FC91B98170
:1020C000B13051F40484F585E02D9301A601B201ED
:1020D0008B8D9C8D09950DC00684F785E02D7301CD
:1020E000840194014C815D816A817B818B8D9C8D03
:1020F0000995E885E695E887FFEFCF1ADF0A2C817E
:102100003D81280D391D3D832C834A895B89C41686
:10211000D50609F0B5CF5FEF451A550A8A819B8134
:10212000880D991D9B838A83AE85BF854A165B0601
:1021300009F09BCFEE81FF816E167F0609F4F2C095
:10214000EB8DFC8DA081B181F981F13079F4B5017D
:102150006B5F7F4F5096ED91FC915197830128E082
:1021600030E0A1018B8D9C8D0995DCC06A857B8553
:10217000681979091E96ED91FC911F9773010C85E2
:102180001D859401A1018B8D9C8D0995CBC0FA0111
:1021900034969491329765917491291BCB01B7E0E5
:1021A0002B9F800D911D1124FA01259134913B8BB9
:1021B0002A8BFC01459154915B834A83FC01329642
:1021C000C490319654915E87329614913196D49092
:1021D0008981823058F0612E012E000C7708AD2DD8
:1021E0000D2C000CBB0BB987A88704C01986188674
:1021F000612C712CAB8DBC8DED91FC9111970284FB
:10220000F385E02DCD010995B9818B2E912C689C29
:10221000C001699C900D789C900D1124FC01EA0D81
:10222000FB1DFD87EC871C82712C612CE12F110FA7
:10223000FF0B95012E0F3F1F3B872A87AC0CB11C6B
:10224000A5014E0F5F1F5F8B4E8BC1018D0D911D40
:10225000D7FC9A95998F888F4E85641608F062C0D6
:10226000862D90E048855985480F591F489D90015B
:10227000499D300D589D300D1124D901A20DB31D7B
:10228000B98BA88BAA84BB844C845D84DC80BA851E
:10229000DB1AE88DF98DE80FF91FFD8BEC8B8D2D86
:1022A0008A0D2E893F89A216B306B9F1877061F4B1
:1022B0008A819B810196EA89FB89AA81BB81EA0F09
:1022C000FB1F74909B838A8377FE20C0AB8DBC8DEF
:1022D000ED91FC91B981B13061F40484F585E02D74
:1022E0002E813F814C895D89B5018B8D9C8D09952F
:1022F0000DC00684F785E02DEE80FF8084019401F7
:1023000048895989B2018B8D9C8D0995770CEFEF27
:10231000AE1ABE0A480C591CC2CF3C813C0D3C830E
:1023200063949ACFAB8DBC8DED91FC91119706888B
:10233000F789E02DCD016C960FB6F894DEBF0FBE85
:10234000CDBFDF91CF911F910F91FF90EF90DF9064
:10235000CF90BF90AF909F908F907F906F905F9045
:102360004F903F902F9009946C960FB6F894DEBF73
:102370000FBECDBFDF91CF911F910F91FF90EF90D6
:10238000DF90CF90BF90AF909F908F907F906F9095
:102390005F904F903F902F90089588E60E94F31928
:1023A00086E090E00E94F21A0E94FD1961E070E060
:1023B00088E690E00E949C1A82E097E00E94730EEB
:1023C000982F92959F708F702AE0929F800D112414
:1023D0000895CF93DF93EB0188E60E94F31985E01F
:1023E00090E00E94F21A0E94FD1961E070E088E618
:1023F00090E00E949C1A82E097E00E94730E982F52
:10240000991F9927991F9883982F96959695969539
:102410009E70292F220F220F920F8F70890FDF914C
:10242000CF91089588E60E94F31984E090E00E941D
:10243000F21A0E94FD1961E070E088E690E00E94C7
:102440009C1A82E097E00E94730E982F92959F70DD
:102450008F702AE0929F800D112408951F93CF93CF
:10246000DF93CDB7DEB72B970FB6F894DEBF0FBE64
:10247000CDBF88E60E94F31980E090E00E94F21A36
:102480000E94FD1967E070E088E690E00E949C1AC7
:1024900082E097E00E94730E8F77982F92959F703D
:1024A0001AEF782F919F700D112482E097E07B87BF
:1024B0000E94730E9C01332794E0359527959A95D9
:1024C000E1F7682F129F600D112482E097E06A8780
:1024D0000E94730E9C01332744E0359527954A9559
:1024E000E1F7582F129F500D112482E097E0598791
:1024F0000E94730E82E097E00E94730E9C013327C6
:1025000054E0359527955A95E1F7482F129F400DD5
:10251000112482E097E048870E94730E9C013327C4
:1025200064E0359527956A95E1F7382F129F300DB5
:10253000112482E097E03F830E94730EFC01FF2785
:1025400074E0F595E7957A95E1F7282F1E9F200D09
:1025500011243F81488559856A857B8580E090E01C
:102560002B960FB6F894DEBF0FBECDBFDF91CF9193
:102570001F9108951F920F920FB60F9211242F935F
:102580003F934F935F936F937F938F939F93AF93FB
:10259000BF93EF93FF938091B900887F803609F451
:1025A0009CC068F5883209F45BC090F4803109F46E
:1025B00054C038F4882309F4F6C0883009F44DC0BB
:1025C000F6C0883109F44CC0803209F45DC0EFC018
:1025D000803409F468C048F4803309F455C0883366
:1025E00009F0E5C080933F06D8C0803509F44FC09C
:1025F000883509F45DC0883409F0D9C0D6C088395F
:1026000009F4C7C0A8F4883709F467C038F48836DD
:1026100009F463C0803709F460C0C9C0883809F480
:10262000B8C0803909F45FC0803809F0C0C05BC011
:10263000803B09F486C038F4803A09F466C0883AD1
:1026400009F47FC0B4C0803C09F4A7C0883C09F4F9
:10265000A4C0883B09F48AC0AAC080911C0610C09F
:1026600090913E0680913D06981770F5E0913E06E8
:1026700081E08E0F80933E06F0E0E35EF94F8081AB
:102680008093BB0085EC86C080933F068EC0E091AE
:102690003E0681E08E0F80933E068091BB00F0E005
:1026A000E35EF94F808390913E0680913D066EC0B7
:1026B000E0913E0681E08E0F80933E068091BB0044
:1026C000F0E0E35EF94F80838091400681116DC098
:1026D00081E080931B0684EA61C083E08093410619
:1026E0001092D005CFCF8091D005803208F051C034
:1026F000E091D00581E08E0F8093D0058091BB00E2
:10270000F0E0E055FA4F8083BDCF85EC8093BC00AC
:10271000109241068091D005803230F4E091D005CE
:10272000F0E0E055FA4F10826091D00570E0E09142
:10273000AE05F091AF0580EB95E009951092D005BC
:1027400036C084E0809341061092AD051092AC052E
:10275000E091AA05F091AB0509958091AC05811136
:1027600005C081E08093AC0510928A05E091AD052B
:1027700081E08E0F8093AD05F0E0E657FA4F80813F
:102780008093BB009091AD058091AC05981708F43B
:1027900079CF85E88093BC000AC085EC8093BC00AB
:1027A0001092410604C010923F060E94310EFF9124
:1027B000EF91BF91AF919F918F917F916F915F91B9
:1027C0004F913F912F910F900FBE0F901F90189532
:1027D0001092410681E08093400610921B0661E052
:1027E00082E10E94C11861E083E10E94C118E9EB17
:1027F000F0E080818E7F808380818D7F808388E47C
:102800008093B80085E48093BC000895CF92DF9256
:10281000EF92FF92CF93DF9383E20E94F31962E07D
:1028200070E083E290E00E949C1A82E097E00E94B0
:10283000730ED82F80E0C82F82E097E00E94730EBD
:10284000C82BD92B0E94FD19BE0180E090E00E94A8
:10285000A8222AE939E949E95FE30E94BB240E94E2
:102860002D256B017C018BED0E945A1A80E00E949D
:102870005A1A81E80E945A1A9601AFEFB0E00E94FE
:102880003F2420E137E240E050E00E94C723822F3E
:10289000DF91CF91FF90EF90DF90CF900C945A1A78
:1028A000EF92FF921F93CF93DF93CDB7DEB72797B9
:1028B0000FB6F894DEBF0FBECDBF162F7A018F83FF
:1028C0000E9406140E94E71AEFE0F7E091E0948B73
:1028D00024E130E03587248728E230E037872687F7
:1028E0008F81682F70E0CE0101960E94F20ECE011A
:1028F00001960E946E1BCE0101960E94D61768E6D3
:1029000075E08FE097E00E94E217612F70E0CE0142
:1029100001960E94F20ECE0101960E946E1BCE011E
:1029200001960E94D61768E675E08FE097E00E9456
:10293000E217B701CE0101960E94F20ECE01019678
:102940000E946E1BCE0101960E94D6170E94F71AB4
:1029500027960FB6F894DEBF0FBECDBFDF91CF91A3
:102960001F91FF90EF9008951F93CF93DF93CDB702
:10297000DEB727970FB6F894DEBF0FBECDBF162F78
:102980008F830E9406140E94E71AEFE0F7E092E0BE
:10299000948B26E030E0358724872FE230E03787BC
:1029A00026878F81682F70E0CE0101960E94F20E7B
:1029B000CE0101960E946E1BCE0101960E94D61791
:1029C0006AE675E08FE097E00E94E217612F70E001
:1029D000CE0101960E94F20ECE0101960E946E1B5E
:1029E000CE0101960E94D6170E94F71A27960FB6BD
:1029F000F894DEBF0FBECDBFDF91CF911F91089538
:102A00000895CF92DF92EF92FF920F931F93CF938F
:102A1000DF936C017A018B01C0E0D0E0CE15DF05B9
:102A200089F0D8016D918D01D601ED91FC91019055
:102A3000F081E02DC6010995892B11F47E0102C0B9
:102A40002196ECCFC701DF91CF911F910F91FF909D
:102A5000EF90DF90CF900895FC01538D448D252F8A
:102A600030E0842F90E0821B930B541710F0CF9628
:102A7000089501970895FC01918D828D981761F05A
:102A8000828DDF01A80FB11D5D968C91928D9F5FA5
:102A90009F73928F90E008958FEF9FEF0895FC0150
:102AA000918D828D981731F0828DE80FF11D858D03
:102AB00090E008958FEF9FEF0895FC01918D228D96
:102AC000892F90E0805C9F4F821B91098F7399271B
:102AD000089585E696E00E945D1521E0892B09F4B2
:102AE00020E0822F0895FC01848DDF01A80FB11D25
:102AF000A35ABF4F2C91848D90E001968F73992734
:102B0000848FA689B7892C93A089B1898C91806420
:102B10008C93938D848D981306C00288F389E02DE1
:102B200080818F7D80830895EF92FF920F931F9392
:102B3000CF93DF93EC0181E0888F9B8D8C8D981370
:102B400005C0E889F989808185FD24C0F62E0B8DAA
:102B500010E00F5F1F4F0F731127E02E8C8DE812CE
:102B60000CC00FB607FCFACFE889F989808185FF90
:102B7000F5CFCE010E947315F1CF8B8DFE01E80FCA
:102B8000F11DE35AFF4FF0820B8FEA89FB898081A8
:102B9000806207C0EE89FF896083E889F9898081B6
:102BA0008064808381E090E0DF91CF911F910F914D
:102BB000FF90EF900895CF93DF93EC01888D8823E9
:102BC000C9F0EA89FB89808185FD05C0A889B9899A
:102BD0008C9186FD0FC00FB607FCF5CF808185FF75
:102BE000F2CFA889B9898C9185FFEDCFCE010E94E3
:102BF0007315E7CFDF91CF91089580E090E0892BA6
:102C000029F00E94691581110C9400000895833009
:102C100081F028F4813099F08230A1F00895873056
:102C2000A9F08830B9F08430D1F4809180008F7D94
:102C300003C0809180008F7780938000089584B5D1
:102C40008F7702C084B58F7D84BD08958091B000D8
:102C50008F7703C08091B0008F7D8093B00008957E
:102C60003FB7F8948091F5059091F605A091F7058E
:102C7000B091F80526B5A89B05C02F3F19F0019625
:102C8000A11DB11D3FBFBA2FA92F982F8827820FF2
:102C9000911DA11DB11DBC01CD0142E0660F771F42
:102CA000881F991F4A95D1F708950895FC01637014
:102CB000658B8481958126813781613039F063305D
:102CC00029F091878087338722870895318720876D
:102CD0009387828708950E949727AF92BF92CF92E1
:102CE000EF92FF920F931F93CF93DF93EC01262F68
:102CF000888D998D009709F040C06A3059F41D867F
:102D00001C862C898E859F8538E0239F800D911D20
:102D1000112441C06D3009F4AAC08E898823C1F006
:102D20003C898C859D8546E0349F800D911D112442
:102D300048855985481759075CF41D861C868E8581
:102D40009F8548E0349F800D911D11249F878E87B9
:102D5000EA88FB88088919894E855F856C857D85A1
:102D6000CC88CE010E94B70F2C898C859D8536E0DA
:102D7000239F800D911D112442C06A3079F41D8675
:102D80001C862C89FC013696E4918E859F852E9FAA
:102D9000800D911D11249F878E8769C06D3009F4C5
:102DA00066C0FC0134963491631708F460C0319614
:102DB000E491E61708F45BC0FC013296A590B4904C
:102DC000462F50E0431B510937E0349FB001359F37
:102DD000700D1124A60EB71EF5013296349131966E
:102DE000E491332311F0E1110DC0F5013496E49123
:102DF0002C898C859D85E29F800D911D11249D87D6
:102E00008C8735C0F501359644915E89552311F1C3
:102E10006C89E32FF0E0E40FF11D47FDFA956E9FFA
:102E2000D0016F9FB00D11244C855D854A0F5B1F4B
:102E3000E885F985E417F5076CF41D861C86FC010E
:102E40003696E4918E859F856E9F800D911D11248D
:102E50009F878E87EA88FB88088919894E855F8558
:102E60006C857D85CC88CE010E94B70FBECF81E0F6
:102E700090E0DF91CF911F910F91FF90EF90CF9055
:102E8000BF90AF9008950F931F93CF93DF938C0162
:102E9000EB01FC01808191810097B1F0688179811B
:102EA0006115710579F0428153812C813D81421772
:102EB000530740F00E94A5278C819D81F8019583DE
:102EC000848313C00E94352688819981F8019183FB
:102ED00080838A819B81938382838C819D8195836A
:102EE0008483198218821B821A821D821C82DF91C0
:102EF000CF911F910F9108950F931F93CF93DF935D
:102F0000EC0188819981009729F02A813B8126175D
:102F1000370788F48B016F5F7F4F0E94CD260097A3
:102F200061F0998388831B830A832C813D81232B45
:102F300011F4FC01108281E001C080E0DF91CF91AB
:102F40001F910F910895CF93DF93EC0188819981B0
:102F5000009711F00E943526198218821D821C826A
:102F60001B821A82DF91CF910895EF92FF920F9307
:102F70001F93CF93DF93EC017B018A01BA010E947A
:102F80007C17811104C0CE010E94A31707C01D83C6
:102F90000C83B701888199810E94A527CE01DF911A
:102FA000CF911F910F91FF90EF900895FC018081C8
:102FB00091810C943526DC01ED91FC910190F0811A
:102FC000E02D09946115710579F0FB010190002055
:102FD000E9F73197AF01461B570BDC01ED91FC91EE
:102FE0000280F381E02D099480E090E008954F92F3
:102FF0005F926F927F92EF92FF920F931F93CF9306
:10300000DF93CDB7DEB7A1970FB6F894DEBF0FBE42
:10301000CDBF7C01FA01CB0119A2223008F42AE0CD
:103020008E010F5D1F4F422E512C612C712CBF0160
:10303000A30192010E941D24F901CA010150110946
:103040006A3014F4605D01C0695CD8016C93232B75
:10305000242B252B61F7B801C7010E94E217A19626
:103060000FB6F894DEBF0FBECDBFDF91CF911F9199
:103070000F91FF90EF907F906F905F904F90089529
:103080001F920F920FB60F9211242F933F934F93DD
:103090005F936F937F938F939F93AF93BF93EF93C0
:1030A000FF9385E696E00E947315FF91EF91BF9123
:1030B000AF919F918F917F916F915F914F913F91D0
:1030C0002F910F900FBE0F901F9018951F920F9287
:1030D0000FB60F9211242F938F939F93EF93FF932B
:1030E000E0917506F09176068081E0917B06F09183
:1030F0007C0682FD12C0908180917E068F5F8F7367
:1031000020917F06821751F0E0917E06F0E0EB59A6
:10311000F94F958F80937E0601C08081FF91EF91DA
:103120009F918F912F910F900FBE0F901F90189528
:10313000CF93DF93282F30E0F901E150F04F8491D5
:10314000F901E551F04FD491F901E952F04FC491E2
:10315000CC2391F081110E940716EC2FF0E0EE0FC6
:10316000FF1FE353F04FA591B491EC91ED2381E063
:1031700090E021F480E002C080E090E0DF91CF9108
:1031800008951F93CF93DF93282F30E0F901E1508A
:10319000F04F8491F901E551F04FD491F901E952D2
:1031A000F04FC491CC23C9F0162F81110E9407164D
:1031B000EC2FF0E0EE0FFF1FE454F04FA591B49117
:1031C0008FB7F894111105C09C91ED2FE095E9237C
:1031D00002C0EC91ED2BEC938FBFDF91CF911F914B
:1031E0000895CF93DF9390E0FC01E551F04F2491D7
:1031F000FC01E952F04F8491882361F190E0880F3F
:10320000991FFC01EE54F04FC591D491FC01E45498
:10321000F04FA591B491611109C09FB7F8948881CE
:10322000209582238883EC912E230BC0623061F4B9
:103230009FB7F8943881822F809583238883EC91FF
:103240002E2B2C939FBF06C08FB7F894E8812E2BAE
:1032500028838FBFDF91CF9108958F929F92AF9275
:10326000BF92CF92DF92EF92FF926B017C010E949E
:1032700030164B015C01C114D104E104F104F1F0FA
:103280000E943016DC01CB0188199909AA09BB09F3
:10329000883E9340A105B10570F321E0C21AD10820
:1032A000E108F10888EE880E83E0981EA11CB11C8D
:1032B000C114D104E104F10419F7DDCFFF90EF90C0
:1032C000DF90CF90BF90AF909F908F9008952FB7D1
:1032D000F8946091F1057091F2058091F305909159
:1032E000F4052FBF08951F920F920FB60F9211246D
:1032F0002F933F938F939F93AF93BF938091F1054B
:103300009091F205A091F305B091F4053091F0058C
:1033100023E0230F2D3720F40196A11DB11D05C018
:1033200026E8230F0296A11DB11D2093F00580937E
:10333000F1059093F205A093F305B093F405809105
:10334000F5059091F605A091F705B091F805019665
:10335000A11DB11D8093F5059093F605A093F70587
:10336000B093F805BF91AF919F918F913F912F91AD
:103370000F900FBE0F901F901895909130079923D2
:1033800039F08EBD00000DB407FEFDCF8EB5089557
:1033900028E030E040E8E0913307F09134075081B5
:1033A00090913A07909595239083E0913107F091A1
:1033B000320790913907542F582319F05081952BDB
:1033C00003C05081909595239083E0913307F0914D
:1033D0003407508190913A07952B90834695215060
:1033E0003109C9F6089591E09093640680933D07F2
:1033F00010926306109262060895209162069091E1
:103400003D07213208F04AC0809141068111FCCF6E
:1034100032E03093410631E0309340063FEF309385
:103420003F0610923E0620933D06A2E4B6E04DE131
:1034300056E0FA013E2F341B321718F43D913193B8
:10344000F9CF10921C0620911C06990F922B909395
:103450001C0690911B06913061F410921B0690910E
:103460001C069093BB009091BC0093FDF8CF95ECA7
:1034700001C095EE9093BC00909141069230E1F32B
:1034800090913F069F3F79F080913F06803241F056
:1034900080913F06803331F084E005C081E003C0B5
:1034A00082E001C083E010926306109262061092DF
:1034B00064060895CF93C82F80912B078F3F59F151
:1034C000E0913507F0913607808190913B07982B6A
:1034D0009083E0913707F0913807208190913C0765
:1034E000909592239083E0913507F09136072081E3
:1034F00090913B079095922390838C2F0E94BD1949
:10350000E0913507F0913607908180913B07892B38
:103510008083CF910895809129070E94F31960E07C
:1035200082E097E00E94BF0E6C2F82E097E00E943D
:10353000BF0ECF910C94FD19909141069111FCCFD3
:10354000613208F060E291E090934106909340066A
:103550002FEF20933F0610923E06260F20933D0644
:1035600090931C0690911C06880F892B80931C0653
:1035700080911B06813061F410921B0680911C061D
:103580008093BB008091BC0083FDF8CF85EC01C027
:1035900085EE8093BC00809141068130E1F38091FB
:1035A0003E06861710F460913E06ADE1B6E02BEFC3
:1035B00035E0F9018E2F821B861718F48D918193C7
:1035C000F9CF1092FA056093F905862F089580E0EF
:1035D00094E0E2E0F1E0DF019C011D9221503040D7
:1035E000E1F70895682F82E097E00C94BF0EFF92F8
:1035F0000F931F93CF93DF9381E20E945A1A80E0CA
:103600000E945A1A8FE70E945A1A82E20E945A1A9E
:1036100080E00E945A1A87E00E945A1A80912B0774
:103620008F3F79F1E0913507F091360790818091D5
:103630003B07892B8083E0913707F0913807908111
:1036400080913C07892B8083E0913507F091360704
:10365000908180913B07809589238083C2E0D1E0EF
:1036600089910E94BD1985E0C230D807C9F7E09161
:103670003507F0913607908180913B07892B808335
:1036800027C0F090B8008CE08093B800C2E0D1E091
:10369000809129070E94F31980E490E00E94F21AB9
:1036A00000E010E0FE01E00FF11F608182E097E092
:1036B0000E94BF0E0F5F1F4F0031110599F70E9446
:1036C000FD19609685E0C230D80711F7F092B80076
:1036D000DF91CF911F910F91FF900895FC014481DC
:1036E0005581608171818FE097E00C940115CF9234
:1036F000DF92EF92FF920F931F93E82FF92F05C0EF
:10370000015011092109310961F190819623941723
:10371000B9F305C0015011092109310911F1908156
:1037200096239413F7CFC12CD12CE12CF12C0AC095
:103730008FEFC81AD80AE80AF80A0C151D052E05DD
:103740003F0579F080818623841791F36C2D7D2DC0
:103750008E2D9F2D1F910F91FF90EF90DF90CF90B6
:10376000089560E070E080E090E01F910F91FF907D
:10377000EF90DF90CF900895CF93DF93CDB7DEB772
:103780002D970FB6F894DEBF0FBECDBF789484B5E9
:10379000826084BD84B5816084BD85B5826085BD4D
:1037A00085B5816085BD80916E00816080936E00DB
:1037B00010928100809181008260809381008091CD
:1037C000810081608093810080918000816080937E
:1037D00080008091B10084608093B1008091B0003E
:1037E00081608093B00080917A00846080937A0039
:1037F00080917A00826080937A0080917A00816063
:1038000080937A0080917A00806880937A00109289
:10381000C1001092FA051092F905109263061092F9
:1038200062060E94E81383E20E94F31960E182E0DD
:1038300097E00E94BF0E0E94FD198FE39CE901975B
:10384000F1F700C0000061E088E00E94F11860E03C
:1038500089E00E94F1188091270790912807892B11
:1038600049F480911D0790911E07069690931E07BC
:1038700080931D0786EC9FE090932807809327078D
:1038800082E080932A078CE38093290780912B079D
:103890008F3F09F4BDC061E080912D070E94F118AF
:1038A00061E080912F070E94F11880912F07082E68
:1038B000000C990BFC01E952F04FE491F0E0EE0F9F
:1038C000FF1FE454F04F2591349130933607209335
:1038D0003507FC01E551F04FE491E0933B078091FF
:1038E0002D07082E000C990BFC01E952F04FE491D2
:1038F000F0E0EE0FFF1FE454F04F25913491309328
:10390000380720933707FC01E551F04FE491E0932D
:103910003C078091300781113EC061E080912B0708
:103920000E94F11861E080912C070E94F1188091AB
:103930002C07082E000C990BFC01E952F04FE49182
:10394000F0E0EE0FFF1FE454F04F259134913093D7
:10395000340720933307FC01E551F04FE491E093E5
:103960003A0780912B07082E000C990BFC01E952B5
:10397000F04FE491F0E0EE0FFF1FE454F04F25917B
:1039800034913093320720933107FC01E551F04F19
:10399000E491E093390780913007882309F442C00D
:1039A0001FB7F8948091D105811127C0E1EEFFE0A7
:1039B0008491E5EFFFE09491E82FF0E0EE0FFF1F18
:1039C000EE54F04FA591B491EC91E92321F461E01C
:1039D0008AE00E94C11861E08AE00E94F1188CB56B
:1039E00080618CBD8CB580648CBD61E08DE00E94EF
:1039F000F11861E08BE00E94F1188091D1058F5F92
:103A00008093D1051FBF80E58CBD81E08DBD0AC0CC
:103A10001092FA051092F905109263061092620650
:103A20000E94E81380912E0787FD1EC061E00E946E
:103A3000F11861E080912E070E94C11861E070E0EA
:103A400080E090E00E942D1960E080912E070E9496
:103A5000C1186AE070E080E090E00E942D1961E0FA
:103A600080912E070E94C1188EEA0E945A1A85ED95
:103A70000E945A1A80E80E945A1A88EA0E945A1A2A
:103A80008FE30E945A1A83ED0E945A1A80E00E9426
:103A90005A1A80E40E945A1A8DE80E945A1A84E148
:103AA0000E945A1A80E20E945A1A80E00E945A1A12
:103AB00081EA0E945A1A88EC0E945A1A8AED0E94E2
:103AC0005A1A82E10E945A1A81E80E945A1A8FEC0F
:103AD0000E945A1A89ED0E945A1A81EF0E945A1ABE
:103AE0008BED0E945A1A80E40E945A1A84EA0E94BE
:103AF0005A1A86EA0E945A1A8EE20E945A1A8FEACD
:103B00000E945A1A89ED0E945A1A80E10E945A1A9C
:103B10008BED0E945A1A80E00E945A1A81E80E9496
:103B20005A1A81E00E945A1A0E94F71A68EB7BE049
:103B300080E090E00E942D190E94E71A81E090E059
:103B400090932207809321079093200780931F076B
:103B500060E083E00E94F118E0917506F09176062E
:103B600082E08083E0917106F09172061082E0910C
:103B70007306F09174068FEC808310927D06E091BD
:103B80007906F0917A0686E08083E0917706F091DD
:103B90007806808180618083E0917706F0917806D5
:103BA000808188608083E0917706F091780680813B
:103BB00080688083E0917706F091780680818F7D20
:103BC00080831092EF051092EE0583B7817F83BF4B
:103BD00033E0C32ED12C22242394312C8091EE0586
:103BE0009091EF058430910509F47DC00197B1F4FF
:103BF0000E9467190091D2051091D3052091D40538
:103C00003091D505DC01CB01801B910BA20BB30BCE
:103C1000883B9B40A105B10508F465C060E088E0E1
:103C20000E94C118C6010197F1F761E088E00E9487
:103C3000C11883E290E00197F1F760E088E00E940C
:103C4000C118E4EFFFE06491E0EEFFE08491E82F1B
:103C5000F0E0EE0FFF1FE353F04F8591949100E4E5
:103C600012E42FE030E0462F0E94771B61157105AA
:103C70008105910509F4C9C3DC01CB010196A11DA1
:103C8000B11DBF706AE370E00E9472258B012B01A9
:103C9000072E000C6608770877FF8FC36DE285E674
:103CA00096E00E94DB1744275527BA0144195509AD
:103CB000660977092AE085E696E00E94F7176CE628
:103CC00075E085E696E00E94E21760E775E085E61C
:103CD00096E00E94E217083211050CF472C31092AC
:103CE000EF051092EE0582E00E9498188C018091F9
:103CF000DE059091DF050817190751F00E9467193A
:103D00006093DA057093DB058093DC059093DD0505
:103D10000E9467194090DA055090DB056090DC0541
:103D20007090DD05DC01CB0184199509A609B7095E
:103D3000C397A105B105E0F08091D8059091D90510
:103D400008171907A9F01093D9050093D805013079
:103D5000110571F481E090E02091D6053091D705EE
:103D6000232B11F080E090E09093D7058093D60547
:103D70001093DF050093DE056090D6057090D7059F
:103D80008091E0059091E1056816790609F4B7C0C5
:103D90001092EC05E4E0F0E0F093EF05E093EE051F
:103DA0005090ED0553945092ED0500910001109153
:103DB00001010F3FFFEF1F0709F494C024E05216E2
:103DC00009F45DC0251560F082E05816B1F093E06B
:103DD000591288C088E60E94F31981E090E071C012
:103DE000E5E05E1609F45CC0F6E05F127BC088E691
:103DF0000E94F31986E090E064C088E60E94F319FF
:103E000082E090E00E94F21A0E94FD1961E070E0E9
:103E100088E690E00E949C1A82E097E00E94730E70
:103E200086FF19C02CE0201760F484EF800F6AE051
:103E30000E946625692FE0E18E9F600D1124606667
:103E400014C0802F6AE00E946625692FF0E18F9FE1
:103E5000600D11240AC0802F6AE00E946625692F38
:103E600020E1829F600D11246F7B88E66D870E94A0
:103E7000F31982E090E00E94F21A6D852DC088E669
:103E80000E94F31984E090E00E94F21A802F6AE009
:103E90000E946625692FF0E18F9F600D11241CC0E0
:103EA00088E60E94F31985E090E00E94F21A802FC4
:103EB0006AE00E946625692F20E1829F600D11242F
:103EC0000BC00E94F21A802F6AE00E946625692FBB
:103ED000E0E18E9F600D112482E097E00E94BF0E0A
:103EE0000E94FD197092E1056092E005F5E0F5157C
:103EF00030F41092ED051092EF051092EE058091CE
:103F0000EE059091EF058230910531F1DCF40097D8
:103F100001F1019709F04EC20E942E12162F29833B
:103F20003A834B835C836D837E830E942E12852FA0
:103F30002F83388749875A876B877C87612F0E9438
:103F4000B41438C283309105F9F0049709F41CC108
:103F500031C20E94E71A2CC2CE0107960E94CD11F1
:103F6000182FBE016F5F7F4FCE0107960E94E911A7
:103F7000682FCE0107966D870E941212412F50E0E4
:103F80006D850E94501416C288E60E94F31981E1E3
:103F900090E00E94F21A0E94FD1962E070E088E64B
:103FA00090E00E949C1A9091F9058091FA0598176B
:103FB00009F182E097E00E94730E182F82E097E0EB
:103FC0000E94730EF12EE12CB701682B26E0759547
:103FD00067952A95E1F7072E000C880B990B0E9434
:103FE000AA2220E030E040E85EE30E9409232B0192
:103FF0003C0107C0412C9CE3592E9CE1692E96ECB4
:10400000792E0E9406140E94E71A81E0809323070C
:1040100084E190E090931C0780931B0788E290E076
:1040200090931E0780931D0763E775E08FE097E08C
:104030000E94E217A3019201C301B2010E9461250F
:10404000882319F066E775E01AC053014201E8942D
:10405000B7F82FEF3FEF4FE75FE7C501B4010E94CC
:104060006125811111C02FEF3FEF4FE75FE7C501D9
:10407000B4010E94A32218163CF46AE775E08FE0B1
:1040800097E00E94E2177DC02FEF3FEF4FE75FE41C
:10409000C301B2010E945C2518161CF46EE775E09E
:1040A000EECF2FEF3FEF4FE75FECC301B2010E946D
:1040B000A32287FDF3CF20E030E0A901C301B201C4
:1040C0000E94A32287FF09C06DE28FE097E00E9463
:1040D000DB1777FA709477F870942AE037ED43EAAB
:1040E0005BE3C301B2010E944F244B015C010E94BB
:1040F0002D252B013C010E94A8229B01AC01C5018A
:10410000B4010E944E244B015C012AE0B301A201DC
:104110008FE097E00E94F7176EE28FE097E00E9431
:10412000DB1720E030E040E251E4C501B4010E9419
:1041300009232B013C010E942D254B01A12CB12C00
:104140002AE0B501A4018FE097E00E94F717C501AE
:10415000B4010E94A8229B01AC01C301B2010E94DC
:104160004E2420E030E040E251E40E9409230E9406
:104170002D25AB0160E070E02AE08FE097E00E941F
:10418000F71762E875E010C183E00E9498188C016F
:104190008091EA059091EB050817190751F00E94EC
:1041A00067196093E6057093E7058093E80590939F
:1041B000E9050E9467194090E6055090E705609078
:1041C000E8057090E905DC01CB0184199509A60981
:1041D000B709C397A105B10508F18091E405909155
:1041E000E50508171907D1F01093E5050093E405DC
:1041F0000130110599F481E090E02091E2053091C1
:10420000E305232B11F080E090E09093E305809389
:10421000E2058091EC058F5F8093EC051093EB0530
:104220000093EA057090EC05072D10E08091ED05F4
:10423000833009F463C028F4813051F0823059F1A1
:10424000A0C0843009F470C0853009F47FC099C0E3
:104250000831110514F01092EC0588E60E94F3195C
:1042600081E090E00E94F21A0E94FD1961E070E086
:1042700088E690E00E949C1A82E097E00E94730E0C
:10428000982F92959F708F70682FEAE09E9F600D27
:104290001124872D30C00C33110514F01092EC0559
:1042A00088E60E94F31982E090E00E94F21A0E94D0
:1042B000FD1961E070E088E690E00E949C1A82E0BF
:1042C00097E00E94730E382F3F7086FF09C084FB71
:1042D000222720F9220F822F880F880F820F09C012
:1042E000982F9695969596959670892F880F880F9A
:1042F000890F830F672D0E94B4143EC00032110550
:1043000014F01092EC05CE0107960E94CD11682E94
:10431000BE016F5F7F4FCE0107960E94E911462DC7
:1043200050E0682F872D26C00D30110514F0109233
:10433000EC05CE0107960E94CD11682ECE0107969E
:104340000E941212462D50E0672D14C0043611054C
:1043500014F01092EC05BE016F5F7F4FCE010796FF
:104360000E94E911682FCE0107966D870E941212F4
:10437000A8016D850E945014109301010093000163
:1043800019C00E94E71A81E08093230784E190E03E
:1043900090931C0780931B0788E290E090931E0780
:1043A00080931D0765E875E08FE097E00E94E217B3
:1043B0000E94F71A0E94FD1511CC2AE0B301A20158
:1043C0007ACCC8014497449778F43092EF05209254
:1043D000EE050E9467196093D2057093D305809310
:1043E000D4059093D5057FCC0A5011090A301105E8
:1043F00038F482E090E09093EF058093EE0573CC63
:10440000D092EF05C092EE056ECC80E090E0DC012A
:1044100039CCE5E6F6E01382128288EE93E0A0E064
:10442000B0E084839583A683B7832CE135E03183A4
:10443000208325EC30E03587248724EC30E0378773
:10444000268720EC30E0318B208B21EC30E0338B61
:10445000228B22EC30E0358B248B26EC30E0378B3E
:10446000268B118E128E138E148EE2E0F7E01382EB
:10447000128284839583A683B7838EE295E091832D
:104480008083EFE0F7E01382128220E830E035838A
:10449000248380E490E09783868331872087938705
:1044A0008287158A158614861786168681E0848B86
:1044B0002FEF3FEF338B228B318B208B868B178A2C
:1044C000118E108E80E495E0918380838FEF848F2E
:1044D00080A3868F858F84E0878F0895BB274A301D
:1044E00031F4992322F4BDE2909581959F4F0C946D
:1044F0007A22BB27FB015527AA27880F991FAA1FDD
:10450000A41710F0A41B83955051B9F7A05DAA33EE
:1045100008F0A95DA193009779F7B111B1931192B9
:10452000CB010C949322DC01FC01672F719177235E
:10453000E1F7329704C07C916D9370836291AE175E
:10454000BF07C8F308950E94E52208F481E00895AA
:10455000E89409C097FB3EF490958095709561951D
:104560007F4F8F4F9F4F9923A9F0F92F96E9BB27D3
:104570009395F695879577956795B795F111F8CF4F
:10458000FAF4BB0F11F460FF1BC06F5F7F4F8F4FBA
:104590009F4F16C0882311F096E911C0772321F0B0
:1045A0009EE8872F762F05C0662371F096E8862F48
:1045B00070E060E02AF09A95660F771F881FDAF79F
:1045C000880F9695879597F90895990F0008550FCC
:1045D000AA0BE0E8FEEF16161706E807F907C0F089
:1045E00012161306E407F50798F0621B730B840B91
:1045F000950B39F40A2661F0232B242B252B21F46B
:1046000008950A2609F4A140A6958FEF811D811D0A
:1046100008950E941C230C948D230E947F2338F060
:104620000E94862320F0952311F00C9476230C949D
:104630007C2311240C94C1230E949E2370F3959F28
:10464000C1F3950F50E0551F629FF001729FBB2789
:10465000F00DB11D639FAA27F00DB11DAA1F649F25
:104660006627B00DA11D661F829F2227B00DA11DD8
:10467000621F739FB00DA11D621F839FA00D611D5E
:10468000221F749F3327A00D611D231F849F600D7F
:10469000211D822F762F6A2F11249F5750409AF0A8
:1046A000F1F088234AF0EE0FFF1FBB1F661F771F34
:1046B000881F91505040A9F79E3F510580F00C94FF
:1046C00076230C94C1235F3FE4F3983ED4F38695A0
:1046D00077956795B795F795E7959F5FC1F7FE2B9F
:1046E000880F911D9695879597F9089597F99F677B
:1046F00080E870E060E008959FEF80EC089500246A
:104700000A941616170618060906089500240A9436
:1047100012161306140605060895092E0394000CBC
:1047200011F4882352F0BB0F40F4BF2B11F460FF4B
:1047300004C06F5F7F4F8F4F9F4F089557FD905874
:10474000440F551F59F05F3F71F04795880F97FB55
:10475000991F61F09F3F79F087950895121613060F
:104760001406551FF2CF4695F1DF08C0161617063E
:104770001806991FF1CF8695710561050894089573
:10478000E894BB2766277727CB0197F90895052E74
:1047900097FB1EF400940E94DE2357FD07D00E9471
:1047A0001D2407FC03D04EF40C94DE235095409555
:1047B000309521953F4F4F4F5F4F089590958095CD
:1047C000709561957F4F8F4F9F4F08952F923F9225
:1047D0004F925F926F927F928F929F92AF92BF9211
:1047E000CF92DF92EF92FF920F931F93CF93DF93BD
:1047F000CDB7DEB7CA1BDB0B0FB6F894DEBF0FBE1A
:10480000CDBF09942A88398848885F846E847D8466
:104810008C849B84AA84B984C884DF80EE80FD8068
:104820000C811B81AA81B981CE0FD11D0FB6F894DE
:10483000DEBF0FBECDBFED010895A1E21A2EAA1B67
:10484000BB1BFD010DC0AA1FBB1FEE1FFF1FA21740
:10485000B307E407F50720F0A21BB30BE40BF50B3D
:10486000661F771F881F991F1A9469F760957095C6
:10487000809590959B01AC01BD01CF010895A29F49
:10488000B001B39FC001A39F700D811D1124911D24
:10489000B29F700D811D1124911D08955058BB27A2
:1048A000AA270E9466240C948D230E947F2338F04F
:1048B0000E94862320F039F49F3F19F426F40C94CB
:1048C0007C230EF4E095E7FB0C947623E92F0E94FD
:1048D0009E2358F3BA17620773078407950720F0E1
:1048E00079F4A6F50C94C0230EF4E0950B2EBA2FA4
:1048F000A02D0B01B90190010C01CA01A0011124E6
:10490000FF27591B99F0593F50F4503E68F11A1691
:10491000F040A22F232F342F4427585FF3CF469522
:1049200037952795A795F0405395C9F77EF41F1644
:10493000BA0B620B730B840BBAF09150A1F0FF0F0E
:10494000BB1F661F771F881FC2F70EC0BA0F621FFA
:10495000731F841F48F4879577956795B795F795EA
:104960009E3F08F0B0CF9395880F08F09927EE0F7F
:104970009795879508950E94CF240C948D230E94CB
:10498000862358F00E947F2340F029F45F3F29F0EE
:104990000C94762351110C94C1230C947C230E9417
:1049A0009E2368F39923B1F3552391F3951B550B7F
:1049B000BB27AA2762177307840738F09F5F5F4FF2
:1049C000220F331F441FAA1FA9F335D00E2E3AF031
:1049D000E0E832D091505040E695001CCAF72BD049
:1049E000FE2F29D0660F771F881FBB1F261737079A
:1049F0004807AB07B0E809F0BB0B802DBF01FF27CC
:104A000093585F4F3AF09E3F510578F00C9476230F
:104A10000C94C1235F3FE4F3983ED4F386957795D9
:104A20006795B795F7959F5FC9F7880F911D969584
:104A3000879597F90895E1E0660F771F881FBB1FE0
:104A4000621773078407BA0720F0621B730B840B8D
:104A5000BA0BEE1F88F7E09508950E94A62388F010
:104A60009F5798F0B92F9927B751B0F0E1F0660F32
:104A7000771F881F991F1AF0BA95C9F714C0B13073
:104A800091F00E94C023B1E008950C94C023672FD9
:104A9000782F8827B85F39F0B93FCCF386957795A2
:104AA0006795B395D9F73EF490958095709561958B
:104AB0007F4F8F4F9F4F08950E94E52208F48FEF9C
:104AC00008950E94E522880B990B0895991B79E0BF
:104AD00004C0991F961708F0961B881F7A95C9F78E
:104AE0008095089597FB072E16F4009407D077FD64
:104AF00009D00E94862507FC05D03EF4909581954B
:104B00009F4F0895709561957F4F0895AA1BBB1B19
:104B100051E107C0AA1FBB1FA617B70710F0A61BBD
:104B2000B70B881F991F5A95A9F780959095BC01DE
:104B3000CD010895EE0FFF1F0590F491E02D09942B
:104B4000CF93DF938230910510F482E090E0E09102
:104B50004007F091410720E030E0C0E0D0E030971E
:104B600011F14081518148175907C0F04817590782
:104B700061F482819381209719F09B838A832BC0F3
:104B8000909341078093400726C02115310519F005
:104B90004217530718F49A01BE01DF01EF010280AA
:104BA000F381E02DDCCF2115310509F1281B390BEC
:104BB0002430310590F412968D919C9113976115D4
:104BC000710521F0FB019383828304C09093410718
:104BD00080934007FD01329644C0FD01E20FF31FB0
:104BE00081939193225031092D933C933AC02091A7
:104BF0003E0730913F07232B41F42091040530916B
:104C0000050530933F0720933E0720910205309120
:104C100003052115310541F42DB73EB74091060536
:104C200050910705241B350BE0913E07F0913F079B
:104C3000E217F307A0F42E1B3F0B2817390778F073
:104C4000AC014E5F5F4F2417350748F04E0F5F1FD2
:104C500050933F0740933E078193919302C0E0E059
:104C6000F0E0CF01DF91CF9108950F931F93CF9381
:104C7000DF93009709F48CC0FC01329713821282F3
:104C800000914007109141070115110581F4208121
:104C90003181820F931F20913E0730913F072817E3
:104CA000390779F5F0933F07E0933E0771C0D801CB
:104CB00040E050E0AE17BF0750F412962D913C91A2
:104CC0001397AD012115310509F1D901F3CF9D01EC
:104CD000DA013383228360817181860F971F8217E7
:104CE000930769F4EC0128813981260F371F2E5F65
:104CF0003F4F318320838A819B8193838283452B1D
:104D000029F4F0934107E093400742C01396FC93C7
:104D1000EE931297ED01499159919E01240F351F91
:104D2000E217F30771F480819181840F951F029639
:104D300011969C938E938281938113969C938E936C
:104D40001297E0E0F0E0D80112968D919C911397B4
:104D5000009719F0F8018C01F6CF8D919C91980184
:104D60002E5F3F4F820F931F20913E0730913F07E8
:104D70002817390769F4309729F4109241071092E7
:104D8000400702C01382128210933F0700933E0730
:104D9000DF91CF911F910F910895A0E0B0E0E3ED76
:104DA000F6E20C94EA23EC01009721F4CB010E9477
:104DB000A025B8C0FC01E60FF71F9C012250310965
:104DC000E217F30708F4ACC0D9010D911C911197BB
:104DD00006171707B0F00530110508F49FC0C80189
:104DE00004978617970708F499C002501109061B0B
:104DF000170B019311936D937C93CF010E9435267D
:104E00008DC05B01A01AB10A4C01800E911EA091C9
:104E10004007B091410740E050E0E12CF12C1097A1
:104E200009F44AC0A815B905D1F56D907C90119789
:104E3000630182E0C80ED11CCA14DB0480F1A30117
:104E40004A195B096A0182E0C80ED11C1296BC9017
:104E500012971396AC91B5E0CB16D10440F0B28214
:104E6000A38351834083D9016D937C930AC00E5F65
:104E70001F4FC301800F911FF90191838083EB2D98
:104E8000FA2FE114F10431F0D7011396FC93EE935D
:104E9000129744C0F0934107E09340073FC08D91C3
:104EA0009C9111974817590708F4AC017D0112969F
:104EB0000D90BC91A02DB3CF80913E0790913F07FC
:104EC00088159905E1F446175707C8F48091020543
:104ED00090910305009741F48DB79EB74091060568
:104EE00050910705841B950BE817F907C8F4F09358
:104EF0003F07E0933E07F901718360830FC0CB0148
:104F00000E94A0257C01009759F0A801BE010E94D3
:104F10009C27CE010E943526C70104C0CE0102C0E5
:104F200080E090E0CDB7DEB7EEE00C94062481E09F
:104F300090E0F8940C94AC27FB01DC0102C00190D6
:104F40000D9241505040D8F70895FB01DC010190CB
:0C4F50000D920020E1F70895F894FFCFC7
:104F5C00FFFF000000000000000000000000000047
:104F6C000000000000000000000000000000000035
:104F7C000000000000000000000000000000000025
:104F8C000000000000000000000000000000000015
:104F9C000080808000000000000000000000000085
:104FAC000000008080C0C000000000000000000075
:104FBC0000000000000000000000000000000000E5
:104FCC0000000000000000000000000000000000D5
:104FDC0000000000000000000000000000000000C5
:104FEC0000000000000080C0E0F0F8FCF8E00000D9
:104FFC000000000000000000000000000000008025
:10500C008080808000808000000000808080808014
:10501C0000FFFFFF00000000808080800000808087
:10502C00000080FFFF8080008080008080808000F6
:10503C0080800000000000808000008C8E840000C6
:10504C0080F8F8F88000000000000000000000006C
:10505C000000F0F0F0F0F0F0F0F0F0F0F0F0E0E044
:10506C00C08000E0FCFEFFFFFF7FFFFFFFFFFF00A3
:10507C0000000000000000000000000000FEFFC760
:10508C000101010183FFFF00007CFEC7010101014A
:10509C0083FFFFFF0038FEC78301010183C7FFFFB9
:1050AC00000001FFFF010100FFFF070101010000EB
:1050BC007FFF80000000FFFF7F0000FFFFFF00006C
:1050CC0001FFFFFF010000000000000000000000D5
:1050DC000000030F3F7F7FFFFFFFFFFFFFFFE7C7CE
:1050EC00C78F8F9FBFFFFFC3C0F0FFFFFFFFFFFC09
:1050FC00FCFCFCFCFCFCFCF8F8F0F0E0C00001034C
:10510C000303030301030300000000010303030373
:10511C000101030100000001030303030101030368
:10512C000000000303000000030300000000000067
:10513C00000103030303030100000001030100004D
:10514C00000303010000000000000000000000004C
:10515C00000000000080C0E0F0F9FFFFFFFFFF3F00
:10516C001F0F87C7F7FFFF1F1F3DFCF8F8F8F87CEF
:10517C007DFFFFFFFFFFFFFFFF7F3F0F070030307A
:10518C000000000000000000000000000000000013
:10519C00000000000000FEFEFC000000000000000B
:1051AC00000000000000000000000000000000E013
:1051BC00C0000000000000000000000030300000C3
:1051CC0000000000000000000000000000000000D3
:1051DC00000000C0FEFFFFFFFFFFFFFFFFFF7F7F10
:1051EC003F1F0F071F7FFFFFF8F8FFFFFFFFFFFEBA
:1051FC00F8E0000000010000000000000000FEFECE
:10520C00000000FCFEFC0C06060EFCF80000F0F89A
:10521C001C0E0606060CFFFFFF0000FEFE00000041
:10522C0000FCFEFC00183C7E66E6CE84000006FF07
:10523C00FF0606FCFEFC0C0606060000FEFE000047
:10524C00C0F8FC4E4646464E7C7840183C76E6CE7E
:10525C00CC800000000000000000000000000000F6
:10526C0000000000000001070F1F1F3F3F3F3F1FC2
:10527C000F030000000000000000000000000F0FF2
:10528C000000000F0F0F000000000F0F00000307BD
:10529C000E0C18180C060F0F0F0000010F0E0C1837
:1052AC000C0F070100040E0C180C0F070000000F68
:1052BC000F00000F0F0F0000000000000F0F000088
:1052CC000007070C0C181C0C060600040E0C180C1E
:1052DC000F070000000000000000000000000000AC
:1052EC0000000000000000000000000000000000B2
:1052FC0000000000000000000000000000000000A2
:10530C000000000000000000000000000000000091
:10531C000000000000000000000000000000000081
:10532C000000000000000000000000000000000071
:10533C000000000000000000000000000000000061
:10534C000000000000000000000000000000000051
:10535C000000000042078000000103070F1F3F7F81
:10536C000080C0E0F0F8FCFE000000009415011570
:10537C002C15DB155D153B154F1500000000BF0EFD
:10538C008F0EEF0E630E870E730E640E000000007E
:10539C006D160115EF0EEE0E930D320A2B0A030A51
:1053AC001F0A130A330A020A56165516DD0A370C61
:1053BC0029090B09940835082F003A0020636D0069
:1053CC000D0A007420006E616E00696E66006F76C7
:0A53DC00660020430074756E650042
:00000001FF
